:10031F00E4F52CF52BF52AF529753150C203C200EF
:10032F00C202C2011209F37E087F108E088F097571
:10033F000A08750B22750C08750D3BEE54E0700220
:10034F008135752D00752E808E2F8F30C374A39F2E
:10035F00FF74089ECF2402CF3400FEE48F288E272F
:10036F00F526F525F524F523F522F521AF28AE273F
:10037F00AD26AC25AB24AA23A922A821C31207FFBF
:10038F00502AE52E2524F582E52D3523F58374CDEE
:10039F00F0E4FAF9F8E5242401F524EA3523F523EE
:1003AF00E93522F522E83521F52180C0E4F524F561
:1003BF0023F522F521AF28AE27AD26AC25AB24AA15
:1003CF0023A922A821C31207FF5035AE23AF24E57E
:1003DF00302FF582E52F3EF583E0FDE52E2FF582D8
:1003EF00E52D3EF583EDF0E4FAF9F8EF2401F5245D
:1003FF00EA3EF523E93522F522E83521F52180B5CE
:10040F00852D08852E0974102480FF740834FFFE93
:10041F00C3E50B9FF50BE50A9EF50AC3E50D9FF5A6
:10042F000DE50C9EF50CE5092410FFE435088F82CD
:10043F00F583E0FF120B8E8E328F33900A257407EF
:10044F00F07A0A7B257D01AF31120BF750757A09CF
:10045F007BFF7D26AF31120BDB5068AF31120ABD27
:10046F00E4752401F523F522F521E47F1FFEFDFC41
:10047F00AB24AA23A922A821D31207FF504574FE4B
:10048F002524F58274093523F583E0FBC003E47F4F
:06049F0002FEFDFCAB248F
:1004A500A8211207B0E5332FF582E5323EF583D05A
:1004B500E0F0E4FAF9F8E5242401F524EA3523F51A
:1004C50023E93522F522E83521F52180A7D2E84335
:1004D500D820907FAFE04401F0907FAEE0441DF05E
:1004E500D2AF200145200105D204120958E4F52CAC
:1004F500F52BF52AF5297F407E927D047C00AB2CF7
:10050500AA2BA92AA829C31207FF50D62001D3E494
:10051500FAF9F8E52C2401F52CEA352BF52BE9350C
:100525002AF52AE83529F52980CC538EF8300105BE
:10053500120050C20130031A120CE75015C2031203
:100545000BBA200007907FD6E020E7F3120C1312B8
:0805550008F9120A3780D622D2
:10005000907FE9E0700221CD147002414424FE70CB
:100060000241B724FB700221C814700221C314702E
:100070000221B914700221BE24056002610B12082E
:10008000FE40026117907FEBE024FE601714604190
:100090002402600221B0E508907FD4F0E509907F4A
:1000A000D5F06117907FEAE0FF120A7BAA06A90744
:1000B0007B018B348A358936EA49600CEE907FD417
:1000C000F0EF907FD5F06117907FB4E04401F061CC
:1000D00017907FEAE0FF120B8EAA06A9077B018B1F
:1000E000348A358936EA49700221A7AB348B3B8AC2
:1000F0003C893D120748F53E907FEEE0FFE53ED398
:100100009F4003E0F53EE53E7002219AE4F53AF5A2
:1001100039F538F537E53EC394405004AF3E8002D0
:100120007F40E4FCFDFEAB3AAA39A938A837C312D8
:1001300007FF5036E53D253AF582E53C3539F58334
:10014000E0FF7400253AF582E4347FF583EFF0E4B4
:10015000FAF9F8E53A2401F53AEA3539F539E9359D
:1001600038F538E83537F53780ABE53EC394405075
:1001700004AF3E80027F40907FB5EFF0E53EC39430
:10018000405004AF3E80027F40C3E53E9FF53E9065
:100190007FB4E020E202210680F5E4907FB5F09084
:1001A0007FB47402F06117907FB4E04401F06117EE
:1001B000907FB4E04401F06117120CD96117120D61
:1001C000126117120D0A6117120CCB6117120D265E
:1001D00040026117907FE8E0247F602314602F24A1
:1001E000027058A200E433FF25E0FFA202E4334F7F
:1001F000907F00F0E4A3F0907FB57402F06117E403
:10020000907F00F0A3F0907FB57402F06117907FAB
:10021000ECE0F45480FFC4540FFFE054072F25E0B6
:1002200024B4F582E4347FF583E05401907F00F03C
:10023000E4A3F0907FB57402F06117907FB4E044BE
:1002400001F06117120D2840026117907FE8E02449
:10025000FE601A240260026117907FEAE0B4010494
:10026000C2006117907FB4E04401F06117907FEA0B
:10027000E0703B907FECE0F45480FFC4540FFFE04B
:1002800054072F25E024B4F582E4347FF583E4F0AD
:10029000907FECE05480FF131313541FFFE05407CA
:0402A0002F907FD745
:1002A400F0E4F53BE04420F08069907FB4E0440141
:1002B400F08060120D2A505B907FE8E024FE601805
:1002C4002402704F907FEAE0B40104D2008044908D
:1002D4007FB4E04401F0803B907FEAE07020907F9F
:1002E400ECE0F45480FFC4540FFFE054072F25E0E2
:1002F40024B4F582E4347FF5837401F08015907F93
:10030400B4E04401F0800C1206655007907FB4E01D
:0B0314004401F0907FB4E04402F022AE
:03003300020D2299
:040D220053D8EF3281
:1009F300120D1A907FDE7404F0907FE27440F09041
:100A03007FDD7401F0907F93E04430F0E0543FF0D9
:100A1300E4907F95F0907F9E74BFF0907FB2740A4C
:100A2300F0A37437F0907FAFE04402F0E054FBF0A2
:040A3300120CB622C9
:100A3700907FB8E030E102417A907F9BE020E602A8
:100A4700417A7A7E79007E7E7F00747E907FE3F024
:100A57007400907FE4F0907FE57F04F0F0F0F0F011
:100A6700F0F0F0F0F0F0F0F0F0F0F0DFEE907FB99A
:040A77007440F022B5
:0C0CE700120CFF907FAFE04408F0D32215
:0508F900120CB6D32231
:0208FE00D32203
:080D0A00907FEAE0F516D32208
:0E0CCB00907F00E516F0907FB57401F0D32203
:080D1200907FEAE0F514D32202
:0E0CD900907F00E514F0907FB57401F0D322F7
:020D2600D322D6
:020D2800D322D4
:020D2A00D322D2
:10066500907FA5E05410FFC4540F4450F51513E4D2
:1006750033F517907FE9E024377002E1432409241C
:10068500F1507A242D6002E146907FEAE0753F0043
:10069500F540A3E0FEE4EE423F907FEEE0754100B9
:1006A500F542A3E0FEE4EE4241907FE8E06440605D
:1006B50002E146E54245417002E146E4907FC5F01E
:1006C500907FB4E020E3F9907FC5E0754300F544E1
:1006D500FD7A7E79C07E7E7FC0AB07AF40AE3F120C
:1006E5000AF3E5442540F540E543353FF53FC3E5CD
:1006F500429544F542E5419543F54180B6907FE941
:10070500E0543FFF907F9BE054404F907F98F090DE
:100715007FEAE0907DC0F07A7D79C07E7D7FC074F0
:100725007D907FE3F074C0907FE4F0907FE5E01268
:100735000BCA907F9BE05440907F98F0800312088D
:03074500A5C32227
:100C2D00C0E0C083C082D2015391EF907FAB7401BD
:080C3D00F0D082D083D0E03238
:100C7400C0E0C083C0825391EF907FAB7404F0D086
:060C840082D083D0E032B3
:100C8A00C0E0C083C0825391EF907FAB7402F0D072
:060C9A0082D083D0E0329D
:100CA000C0E0C083C0825391EF907FAB7410F0D04E
:060CB00082D083D0E03287
:010D2E003292
:100C4500C0E0C083C082D2035391EF907FAB74089C
:080C5500F0D082D083D0E03220
:010D2F003291
:010D30003290
:010D3100328F
:010D3200328E
:010D3300328D
:010D3400328C
:010D3500328B
:010D3600328A
:010D37003289
:020D2C00003293
:010D38003288
:010D39003287
:010D3A003286
:010D3B003285
:010D3C003284
:010D3D003283
:100CB600907F9BE0547F907F98F07F647E00120CBB
:050CC6005D1208A522EB
:0B0CFF00907F9BE04480907F98F022E3
:1008A500907F9BE054404409907F98F07A7F79EAE5
:1008B5007E7F7FEA747F907FE3F074EA907FE4F0B7
:1008C500907FE5E0120BCA120BCA120BCA907FB8D3
:1008D500E030E115E4A3F0907FBBF0907FB8E044F1
:1008E50002F0907FBAE04402F0907F9BE054409084
:0408F5007F98F022D6
:1009A900AB07AA06AC05E4FDE5176010EA7E000D69
:1009B900EE2427F582E4340AF583EAF0EBAE050D5F
:1009C90074272EF582E4340AF583EBF0AF050D7434
:1009D900272FF582E4340AF583ECF07A0A7B27AFF6
:0A09E90015120BF7AF15120ABD221C
:100AF3008E478F488D498A4A8B4BE4F54CE54CC3AE
:100B0300954950200548E548AE477002054714FF54
:100B1300E54B254CF582E4354AF583E0FD1209A93E
:050B2300054C80D92201
:100810001201000100000040470502100100010222
:10082000030109021900010100A0000904000001F0
:10083000FF00000007058202400000040309040EC7
:10084000034F0072006D0069006E007300160343D1
:1008500000430044002000730079007300740065B9
:10086000006D0040033300300030003500300032AE
:10087000002D00310032002D00300033002D0035F6
:100880000035003500300030002D003000300031E0
:10089000002D00300031002D0030003000300030DD
:0508A000003100000022
:100C1300907FD6E030E712E04401F07F147E0012AB
:0A0C23000C5D907FD6E054FEF02235
:100BBA00907FD6E04480F0438701000000000022C5
:07095800907FD6E04408F097
:03095F00E4F53488
:04096200E054FBF072
:03096600E4F53481
:10096900E04408F0300404E04402F07FDC7E051224
:100979000C5D907F92E030E3077FDC7E05120C5D11
:10098900907FAB74FFF0907FA9F0907FAAF053910C
:08099900EF907FD6E054F7F067
:0309A100E4F53446
:0509A400E04404F02214
:100BCA007400F58690FDA57C05A3E582458370F93E
:010BDA0022F8
:100C5D008E358F36E5361536AE35700215354E604C
:070C6D0005120BCA80EE2204
:080D1A00E4F513D2E9D2AF2287
:100ABD00907FA5E020E6F9C2E9907FA5E04480F0A3
:100ACD00EF25E0907FA6F0907FA5E030E0F9907FD4
:100ADD00A5E04440F0907FA5E020E6F9907FA5E0E9
:060AED0030E1D6D2E9223F
:100B5C00A907907FA5E020E6F9E5137023907FA507
:100B6C00E04480F0E925E0907FA6F08D0EAF03A95C
:100B7C0007750F018A108911E4F512751301D32240
:020B8C00C32282
:100B2800A907907FA5E020E6F9E5137025907FA539
:100B3800E04480F0E925E04401907FA6F08D0EAFF7
:100B480003A907750F018A108911E4F512751303BB
:040B5800D322C322BF
:03004B0002055D4E
:10055D00C0E0C083C082C085C084C086758600C0DF
:10056D00D075D000C000C001C002C003C006C007D6
:10057D00907FA5E030E206751306020647907FA531
:10058D00E020E10CE51364026006751307020647CF
:10059D00E51324FE605F14603624FE7003020638F6
:1005AD0024FC700302064424086003020647AB0FC7
:1005BD00AA10A911AF1205128F827583001207615F
:1005CD00907FA6F0E512650E7070751305806B9027
:1005DD007FA6E0AB0FAA10A911AE128E8275830013
:1005ED0012078E751302E50E6401704E907FA5E023
:1005FD004420F08045E50E24FEB51207907FA5E05E
:10060D004420F0E50E14B5120A907FA5E04440F0A9
:10061D00751300907FA6E0AB0FAA10A911AE128E34
:10062D008275830012078E0512800F907FA5E0441E
:10063D0040F075130080037513005391DFD007D080
:10064D0006D003D002D001D000D0D0D086D084D037
:08065D0085D082D083D0E03289
:020B8E00A907B5
:100B9000AE0CAF0D8F828E83A3E064037017AD019E
:100BA00019ED7001228F828E83E07C002FFDEC3ED8
:090BB000FEAF0580DF7E007F002E
:010BB9002219
:100A7B00E4FEAC0AAD0B8D828C83A3E06402702D77
:100A8B00AB060EEBB50705AF05AE04228D828C834A
:100A9B00A3A3E0F53FA3E0F540623FE53F6240E5ED
:100AAB0040623F2DFBE53F3CFCAD0380C97E007FE0
:010ABB00003A
:010ABC002217
:100BDB00120B28E51324FA600E146006240770F339
:0C0BEB00D322E4F513D322E4F513D32247
:100BF700120B5CE51324FA600E146006240770F3E9
:0C0C0700D322E4F513D322E4F513D3222A
:03004300020900AF
:10090000020C2D00020C8A00020C7400020C45003F
:10091000020CA000020D2E00020D2F00020D30006F
:10092000020D3100020D3200020D3300020D3400C1
:10093000020D3500020D3600020D3700020D2C00AD
:10094000020D3800020D3900020D3A00020D3B0085
:08095000020D3C00020D3D0008
:03000000020CF3FC
:0C0CF300787FE4F6D8FD75814C02031FE9
:10074800BB010689828A83E0225002E722BBFE02AF
:09075800E32289828A83E49322E2
:10076100BB010CE58229F582E5833AF583E022504D
:1007710006E92582F8E622BBFE06E92582F8E22297
:0D078100E58229F582E5833AF583E49322B1
:10078E00F8BB010DE58229F582E5833AF583E8F0A1
:10079E00225006E92582C8F622BBFE05E92582C84D
:0207AE00F22235
:1007B000E88FF0A4CC8BF0A42CFCE98EF0A42CFCE8
:1007C0008AF0EDA42CFCEA8EF0A4CDA8F08BF0A466
:1007D0002DCC3825F0FDE98FF0A42CCD35F0FCEBC5
:1007E0008EF0A4FEA9F0EB8FF0A4CFC5F02ECD398A
:0F07F000FEE43CFCEAA42DCE35F0FDE43CFC22F7
:1007FF00EB9FF5F0EA9E42F0E99D42F0E89C45F050
:01080F0022C6
:00000001FF
